{
  "_format": "hh-sol-artifact-1",
  "contractName": "RockPaperScissors",
  "sourceName": "contracts/RockPaperScissors.sol",
  "abi": [
    {
      "inputs": [
        {
          "internalType": "address",
          "name": "",
          "type": "address"
        }
      ],
      "name": "gameCount",
      "outputs": [
        {
          "internalType": "uint256",
          "name": "",
          "type": "uint256"
        }
      ],
      "stateMutability": "view",
      "type": "function"
    },
    {
      "inputs": [
        {
          "internalType": "address",
          "name": "",
          "type": "address"
        }
      ],
      "name": "games",
      "outputs": [
        {
          "internalType": "euint32",
          "name": "playerChoice",
          "type": "bytes32"
        },
        {
          "internalType": "euint32",
          "name": "systemChoice",
          "type": "bytes32"
        },
        {
          "internalType": "euint32",
          "name": "result",
          "type": "bytes32"
        },
        {
          "internalType": "bool",
          "name": "isCompleted",
          "type": "bool"
        }
      ],
      "stateMutability": "view",
      "type": "function"
    },
    {
      "inputs": [
        {
          "internalType": "address",
          "name": "player",
          "type": "address"
        }
      ],
      "name": "getGame",
      "outputs": [
        {
          "internalType": "euint32",
          "name": "playerChoice",
          "type": "bytes32"
        },
        {
          "internalType": "euint32",
          "name": "systemChoice",
          "type": "bytes32"
        },
        {
          "internalType": "euint32",
          "name": "result",
          "type": "bytes32"
        },
        {
          "internalType": "bool",
          "name": "isCompleted",
          "type": "bool"
        }
      ],
      "stateMutability": "view",
      "type": "function"
    },
    {
      "inputs": [
        {
          "internalType": "address",
          "name": "player",
          "type": "address"
        }
      ],
      "name": "getGameCount",
      "outputs": [
        {
          "internalType": "uint256",
          "name": "",
          "type": "uint256"
        }
      ],
      "stateMutability": "view",
      "type": "function"
    },
    {
      "inputs": [],
      "name": "protocolId",
      "outputs": [
        {
          "internalType": "uint256",
          "name": "",
          "type": "uint256"
        }
      ],
      "stateMutability": "pure",
      "type": "function"
    },
    {
      "inputs": [
        {
          "internalType": "externalEuint32",
          "name": "playerChoiceEuint32",
          "type": "bytes32"
        },
        {
          "internalType": "bytes",
          "name": "inputProof",
          "type": "bytes"
        }
      ],
      "name": "submitChoice",
      "outputs": [],
      "stateMutability": "nonpayable",
      "type": "function"
    },
    {
      "inputs": [
        {
          "internalType": "externalEuint32",
          "name": "systemChoiceEuint32",
          "type": "bytes32"
        },
        {
          "internalType": "bytes",
          "name": "inputProof",
          "type": "bytes"
        }
      ],
      "name": "submitSystemChoice",
      "outputs": [],
      "stateMutability": "nonpayable",
      "type": "function"
    }
  ],
  "bytecode": "0x608060405234801561000f575f5ffd5b5061018a6100ae604080516080810182525f808252602082018190529181018290526060810191909152506040805160808101825273687820221192c5b662b25367f70076a37bc79b6c815273848b0066793bcc60346da1f49049357399b8d595602082015273a02cda4ca3a71d7c46997716f4283aa851c2881291810191909152731364cbbf2cdf5032c47d8226a6f6fbd2afcdacac606082015290565b80517f9e7b61f58c47dc699ac88507c4f5bb9f121c03808c5676a8078fe583e464970080546001600160a01b03199081166001600160a01b039384161790915560208301517f9e7b61f58c47dc699ac88507c4f5bb9f121c03808c5676a8078fe583e46497018054831691841691909117905560408301517f9e7b61f58c47dc699ac88507c4f5bb9f121c03808c5676a8078fe583e46497028054831691841691909117905560608301517f9e7b61f58c47dc699ac88507c4f5bb9f121c03808c5676a8078fe583e46497038054909216921691909117905550565b610c24806101975f395ff3fe608060405234801561000f575f5ffd5b506004361061007a575f3560e01c80638d1a4b28116100585780638d1a4b2814610127578063a4323b4f1461018a578063bd7a2161146101a9578063da1f12ab146101bc575f5ffd5b80630342a1f71461007e57806337a1cc2a1461009357806379131a19146100ce575b5f5ffd5b61009161008c366004610aba565b6101c4565b005b6100bb6100a1366004610b31565b6001600160a01b03165f9081526001602052604090205490565b6040519081526020015b60405180910390f35b6101056100dc366004610b31565b5f6020819052908152604090208054600182015460028301546003909301549192909160ff1684565b60408051948552602085019390935291830152151560608201526080016100c5565b610105610135366004610b31565b6001600160a01b03165f9081526020818152604091829020825160808101845281548082526001830154938201849052600283015494820185905260039092015460ff16151560609091018190529093919291565b6100bb610198366004610b31565b60016020525f908152604090205481565b6100916101b7366004610aba565b6102ab565b6127116100bb565b5f6102048484848080601f0160208091040260200160405190810160405280939291908181526020018383808284375f9201919091525061049092505050565b905060405180608001604052808281526020016102205f6104a4565b815260200161022e5f6104a4565b81525f6020918201819052338152808252604080822084518155848401516001808301919091558583015160028301556060909501516003909101805460ff19169115159190911790559290915290812080549161028b83610b57565b9190505550610299816104bc565b506102a481336104cb565b5050505050565b335f908152602081905260409020600381015460ff16156103125760405162461bcd60e51b815260206004820152601660248201527f47616d6520616c726561647920636f6d706c6574656400000000000000000000604482015260640160405180910390fd5b5f6103528585858080601f0160208091040260200160405190810160405280939291908181526020018383808284375f9201919091525061049092505050565b6001830181905582549091505f9061036a90836104dd565b90505f610398610385855f01546103805f6104a4565b6104dd565b6103938561038060016104a4565b61050b565b90505f6103bd6103af865f015461038060016104a4565b6103938661038060026104a4565b90505f6103e16103d4875f015461038060026104a4565b610393876103805f6104a4565b90505f6103f7846103f28585610539565b610539565b90505f6104178261040860016104a4565b61041260026104a4565b610567565b90505f61042d876104275f6104a4565b84610567565b60028a0181905560038a01805460ff191660019081179091558a0154909150610455906104bc565b506104648960010154336104cb565b5061047289600201546104bc565b506104818960020154336104cb565b50505050505050505050505050565b5f61049d8383600461057b565b9392505050565b5f6104b68263ffffffff16600461069b565b92915050565b5f6104c78230610750565b5090565b5f6104d68383610750565b5090919050565b5f826104ef576104ec5f6104a4565b92505b81610500576104fd5f6104a4565b91505b61049d83835f6107d9565b5f8261051d5761051a5f6108bc565b92505b8161052e5761052b5f6108bc565b91505b61049d83835f6108d7565b5f8261054b576105485f6108bc565b92505b8161055c576105595f6108bc565b91505b61049d83835f610974565b5f610573848484610a11565b949350505050565b7f9e7b61f58c47dc699ac88507c4f5bb9f121c03808c5676a8078fe583e46497015460405163196d0b9b60e01b81525f917f9e7b61f58c47dc699ac88507c4f5bb9f121c03808c5676a8078fe583e4649700916001600160a01b039091169063196d0b9b906105f4908890339089908990600401610b9b565b6020604051808303815f875af1158015610610573d5f5f3e3d5ffd5b505050506040513d601f19601f820116820180604052508101906106349190610bec565b8154604051630f8e573b60e21b8152600481018390523360248201529193506001600160a01b031690633e395cec906044015f604051808303815f87803b15801561067d575f5ffd5b505af115801561068f573d5f5f3e3d5ffd5b50505050509392505050565b7f9e7b61f58c47dc699ac88507c4f5bb9f121c03808c5676a8078fe583e464970154604051639cd07acb60e01b81525f917f9e7b61f58c47dc699ac88507c4f5bb9f121c03808c5676a8078fe583e4649700916001600160a01b0390911690639cd07acb906107109087908790600401610c03565b6020604051808303815f875af115801561072c573d5f5f3e3d5ffd5b505050506040513d601f19601f820116820180604052508101906105739190610bec565b5f7f9e7b61f58c47dc699ac88507c4f5bb9f121c03808c5676a8078fe583e46497008054604051635ca4b5b160e11b8152600481018690526001600160a01b03858116602483015292935091169063b9496b62906044015f604051808303815f87803b1580156107be575f5ffd5b505af11580156107d0573d5f5f3e3d5ffd5b50505050505050565b5f5f82156107ec5750600160f81b6107ef565b505f5b7f9e7b61f58c47dc699ac88507c4f5bb9f121c03808c5676a8078fe583e46497015460405163f77f3f1d60e01b815260048101879052602481018690526001600160f81b0319831660448201527f9e7b61f58c47dc699ac88507c4f5bb9f121c03808c5676a8078fe583e4649700916001600160a01b03169063f77f3f1d906064015b6020604051808303815f875af115801561088e573d5f5f3e3d5ffd5b505050506040513d601f19601f820116820180604052508101906108b29190610bec565b9695505050505050565b5f6104b6826108cb575f6108ce565b60015b60ff165f61069b565b5f5f82156108ea5750600160f81b6108ed565b505f5b7f9e7b61f58c47dc699ac88507c4f5bb9f121c03808c5676a8078fe583e46497015460405163d99882d560e01b815260048101879052602481018690526001600160f81b0319831660448201527f9e7b61f58c47dc699ac88507c4f5bb9f121c03808c5676a8078fe583e4649700916001600160a01b03169063d99882d590606401610872565b5f5f82156109875750600160f81b61098a565b505f5b7f9e7b61f58c47dc699ac88507c4f5bb9f121c03808c5676a8078fe583e4649701546040516363a2db2960e01b815260048101879052602481018690526001600160f81b0319831660448201527f9e7b61f58c47dc699ac88507c4f5bb9f121c03808c5676a8078fe583e4649700916001600160a01b0316906363a2db2990606401610872565b5f807f9e7b61f58c47dc699ac88507c4f5bb9f121c03808c5676a8078fe583e46497006001810154604051637702dcff60e01b81526004810188905260248101879052604481018690529192506001600160a01b031690637702dcff906064016020604051808303815f875af1158015610a8d573d5f5f3e3d5ffd5b505050506040513d601f19601f82011682018060405250810190610ab19190610bec565b95945050505050565b5f5f5f60408486031215610acc575f5ffd5b83359250602084013567ffffffffffffffff811115610ae9575f5ffd5b8401601f81018613610af9575f5ffd5b803567ffffffffffffffff811115610b0f575f5ffd5b866020828401011115610b20575f5ffd5b939660209190910195509293505050565b5f60208284031215610b41575f5ffd5b81356001600160a01b038116811461049d575f5ffd5b5f60018201610b7457634e487b7160e01b5f52601160045260245ffd5b5060010190565b60548110610b9757634e487b7160e01b5f52602160045260245ffd5b9052565b8481526001600160a01b0384166020820152608060408201525f8351806080840152806020860160a085015e5f60a0828501015260a0601f19601f830116840101915050610ab16060830184610b7b565b5f60208284031215610bfc575f5ffd5b5051919050565b8281526040810161049d6020830184610b7b56fea164736f6c634300081b000a",
  "linkReferences": {},
  "deployedLinkReferences": {}
}